{
  "address": "0xC20bCD4336fe0bfA2DeE36Ab2bEA18BC1aF65Dc5",
  "abi": [
    {
      "inputs": [
        {
          "internalType": "address",
          "name": "_optionMarket",
          "type": "address"
        },
        {
          "internalType": "address",
          "name": "_optionMarketPricer",
          "type": "address"
        },
        {
          "internalType": "address",
          "name": "_baseExchangeAdapter",
          "type": "address"
        },
        {
          "internalType": "address",
          "name": "_optionGreekCache",
          "type": "address"
        },
        {
          "internalType": "address",
          "name": "_liquidityPool",
          "type": "address"
        }
      ],
      "stateMutability": "nonpayable",
      "type": "constructor"
    },
    {
      "inputs": [],
      "name": "baseExchangeAdapter",
      "outputs": [
        {
          "internalType": "contract IBaseExchangeAdapter",
          "name": "",
          "type": "address"
        }
      ],
      "stateMutability": "view",
      "type": "function"
    },
    {
      "inputs": [
        {
          "internalType": "uint256",
          "name": "premium",
          "type": "uint256"
        },
        {
          "internalType": "uint256",
          "name": "expiry",
          "type": "uint256"
        }
      ],
      "name": "calculateOptionPriceFee",
      "outputs": [
        {
          "internalType": "uint256",
          "name": "fee",
          "type": "uint256"
        }
      ],
      "stateMutability": "view",
      "type": "function"
    },
    {
      "inputs": [
        {
          "internalType": "enum IOptionMarket.OptionType",
          "name": "optionType",
          "type": "uint8"
        },
        {
          "internalType": "uint256",
          "name": "amount",
          "type": "uint256"
        },
        {
          "components": [
            {
              "internalType": "uint256",
              "name": "callPrice",
              "type": "uint256"
            },
            {
              "internalType": "uint256",
              "name": "putPrice",
              "type": "uint256"
            },
            {
              "internalType": "int256",
              "name": "callDelta",
              "type": "int256"
            },
            {
              "internalType": "int256",
              "name": "putDelta",
              "type": "int256"
            },
            {
              "internalType": "uint256",
              "name": "vega",
              "type": "uint256"
            },
            {
              "internalType": "uint256",
              "name": "stdVega",
              "type": "uint256"
            }
          ],
          "internalType": "struct BlackScholes.PricesDeltaStdVega",
          "name": "pricesDeltaStdVega",
          "type": "tuple"
        }
      ],
      "name": "calculatePremium",
      "outputs": [
        {
          "internalType": "uint256",
          "name": "premium",
          "type": "uint256"
        }
      ],
      "stateMutability": "pure",
      "type": "function"
    },
    {
      "inputs": [
        {
          "internalType": "uint256",
          "name": "spotPrice",
          "type": "uint256"
        },
        {
          "components": [
            {
              "internalType": "uint256",
              "name": "id",
              "type": "uint256"
            },
            {
              "internalType": "uint256",
              "name": "boardId",
              "type": "uint256"
            },
            {
              "internalType": "uint256",
              "name": "strikePrice",
              "type": "uint256"
            },
            {
              "internalType": "uint256",
              "name": "skew",
              "type": "uint256"
            },
            {
              "components": [
                {
                  "internalType": "int256",
                  "name": "callDelta",
                  "type": "int256"
                },
                {
                  "internalType": "int256",
                  "name": "putDelta",
                  "type": "int256"
                },
                {
                  "internalType": "uint256",
                  "name": "stdVega",
                  "type": "uint256"
                },
                {
                  "internalType": "uint256",
                  "name": "callPrice",
                  "type": "uint256"
                },
                {
                  "internalType": "uint256",
                  "name": "putPrice",
                  "type": "uint256"
                }
              ],
              "internalType": "struct IOptionGreekCache.StrikeGreeks",
              "name": "greeks",
              "type": "tuple"
            },
            {
              "internalType": "int256",
              "name": "callExposure",
              "type": "int256"
            },
            {
              "internalType": "int256",
              "name": "putExposure",
              "type": "int256"
            },
            {
              "internalType": "uint256",
              "name": "skewVariance",
              "type": "uint256"
            }
          ],
          "internalType": "struct IOptionGreekCache.StrikeCache",
          "name": "strikeCache",
          "type": "tuple"
        },
        {
          "components": [
            {
              "internalType": "uint256",
              "name": "id",
              "type": "uint256"
            },
            {
              "internalType": "uint256[]",
              "name": "strikes",
              "type": "uint256[]"
            },
            {
              "internalType": "uint256",
              "name": "expiry",
              "type": "uint256"
            },
            {
              "internalType": "uint256",
              "name": "iv",
              "type": "uint256"
            },
            {
              "components": [
                {
                  "internalType": "int256",
                  "name": "netDelta",
                  "type": "int256"
                },
                {
                  "internalType": "int256",
                  "name": "netStdVega",
                  "type": "int256"
                },
                {
                  "internalType": "int256",
                  "name": "netOptionValue",
                  "type": "int256"
                }
              ],
              "internalType": "struct IOptionGreekCache.NetGreeks",
              "name": "netGreeks",
              "type": "tuple"
            },
            {
              "internalType": "uint256",
              "name": "updatedAt",
              "type": "uint256"
            },
            {
              "internalType": "uint256",
              "name": "updatedAtPrice",
              "type": "uint256"
            },
            {
              "internalType": "uint256",
              "name": "maxSkewVariance",
              "type": "uint256"
            },
            {
              "internalType": "uint256",
              "name": "ivVariance",
              "type": "uint256"
            }
          ],
          "internalType": "struct IOptionGreekCache.OptionBoardCache",
          "name": "boardCache",
          "type": "tuple"
        }
      ],
      "name": "calculatePricesDeltaStdVega",
      "outputs": [
        {
          "components": [
            {
              "internalType": "uint256",
              "name": "callPrice",
              "type": "uint256"
            },
            {
              "internalType": "uint256",
              "name": "putPrice",
              "type": "uint256"
            },
            {
              "internalType": "int256",
              "name": "callDelta",
              "type": "int256"
            },
            {
              "internalType": "int256",
              "name": "putDelta",
              "type": "int256"
            },
            {
              "internalType": "uint256",
              "name": "vega",
              "type": "uint256"
            },
            {
              "internalType": "uint256",
              "name": "stdVega",
              "type": "uint256"
            }
          ],
          "internalType": "struct BlackScholes.PricesDeltaStdVega",
          "name": "pricesDeltaStdVega",
          "type": "tuple"
        }
      ],
      "stateMutability": "view",
      "type": "function"
    },
    {
      "inputs": [
        {
          "internalType": "uint256",
          "name": "spotPrice",
          "type": "uint256"
        },
        {
          "internalType": "uint256",
          "name": "amount",
          "type": "uint256"
        },
        {
          "internalType": "uint256",
          "name": "expiry",
          "type": "uint256"
        }
      ],
      "name": "calculateSpotPriceFee",
      "outputs": [
        {
          "internalType": "uint256",
          "name": "fee",
          "type": "uint256"
        }
      ],
      "stateMutability": "view",
      "type": "function"
    },
    {
      "inputs": [
        {
          "internalType": "uint256",
          "name": "strikeId",
          "type": "uint256"
        },
        {
          "internalType": "enum IOptionMarket.TradeDirection",
          "name": "tradeDirection",
          "type": "uint8"
        },
        {
          "internalType": "enum IOptionMarket.OptionType",
          "name": "optionType",
          "type": "uint8"
        },
        {
          "internalType": "uint256",
          "name": "amount",
          "type": "uint256"
        },
        {
          "internalType": "bool",
          "name": "isBuy",
          "type": "bool"
        },
        {
          "internalType": "bool",
          "name": "isForceClose",
          "type": "bool"
        }
      ],
      "name": "calculateTotalCost",
      "outputs": [
        {
          "internalType": "uint256",
          "name": "totalCost",
          "type": "uint256"
        }
      ],
      "stateMutability": "view",
      "type": "function"
    },
    {
      "inputs": [
        {
          "internalType": "enum IOptionMarket.TradeDirection",
          "name": "tradeDirection",
          "type": "uint8"
        },
        {
          "internalType": "enum IOptionMarket.OptionType",
          "name": "optionType",
          "type": "uint8"
        },
        {
          "internalType": "bool",
          "name": "isForceClose",
          "type": "bool"
        }
      ],
      "name": "getSpotPrice",
      "outputs": [
        {
          "internalType": "uint256",
          "name": "spotPrice",
          "type": "uint256"
        }
      ],
      "stateMutability": "view",
      "type": "function"
    },
    {
      "inputs": [],
      "name": "liquidityPool",
      "outputs": [
        {
          "internalType": "contract ILiquidityPool",
          "name": "",
          "type": "address"
        }
      ],
      "stateMutability": "view",
      "type": "function"
    },
    {
      "inputs": [],
      "name": "optionGreekCache",
      "outputs": [
        {
          "internalType": "contract IOptionGreekCache",
          "name": "",
          "type": "address"
        }
      ],
      "stateMutability": "view",
      "type": "function"
    },
    {
      "inputs": [],
      "name": "optionMarket",
      "outputs": [
        {
          "internalType": "contract IOptionMarket",
          "name": "",
          "type": "address"
        }
      ],
      "stateMutability": "view",
      "type": "function"
    },
    {
      "inputs": [],
      "name": "optionMarketPricer",
      "outputs": [
        {
          "internalType": "contract IOptionMarketPricer",
          "name": "",
          "type": "address"
        }
      ],
      "stateMutability": "view",
      "type": "function"
    },
    {
      "inputs": [
        {
          "components": [
            {
              "internalType": "uint256",
              "name": "id",
              "type": "uint256"
            },
            {
              "internalType": "uint256",
              "name": "strikePrice",
              "type": "uint256"
            },
            {
              "internalType": "uint256",
              "name": "skew",
              "type": "uint256"
            },
            {
              "internalType": "uint256",
              "name": "longCall",
              "type": "uint256"
            },
            {
              "internalType": "uint256",
              "name": "shortCallBase",
              "type": "uint256"
            },
            {
              "internalType": "uint256",
              "name": "shortCallQuote",
              "type": "uint256"
            },
            {
              "internalType": "uint256",
              "name": "longPut",
              "type": "uint256"
            },
            {
              "internalType": "uint256",
              "name": "shortPut",
              "type": "uint256"
            },
            {
              "internalType": "uint256",
              "name": "boardId",
              "type": "uint256"
            }
          ],
          "internalType": "struct IOptionMarket.Strike",
          "name": "strike",
          "type": "tuple"
        },
        {
          "components": [
            {
              "internalType": "uint256",
              "name": "id",
              "type": "uint256"
            },
            {
              "internalType": "uint256",
              "name": "boardId",
              "type": "uint256"
            },
            {
              "internalType": "uint256",
              "name": "strikePrice",
              "type": "uint256"
            },
            {
              "internalType": "uint256",
              "name": "skew",
              "type": "uint256"
            },
            {
              "components": [
                {
                  "internalType": "int256",
                  "name": "callDelta",
                  "type": "int256"
                },
                {
                  "internalType": "int256",
                  "name": "putDelta",
                  "type": "int256"
                },
                {
                  "internalType": "uint256",
                  "name": "stdVega",
                  "type": "uint256"
                },
                {
                  "internalType": "uint256",
                  "name": "callPrice",
                  "type": "uint256"
                },
                {
                  "internalType": "uint256",
                  "name": "putPrice",
                  "type": "uint256"
                }
              ],
              "internalType": "struct IOptionGreekCache.StrikeGreeks",
              "name": "greeks",
              "type": "tuple"
            },
            {
              "internalType": "int256",
              "name": "callExposure",
              "type": "int256"
            },
            {
              "internalType": "int256",
              "name": "putExposure",
              "type": "int256"
            },
            {
              "internalType": "uint256",
              "name": "skewVariance",
              "type": "uint256"
            }
          ],
          "internalType": "struct IOptionGreekCache.StrikeCache",
          "name": "strikeCache",
          "type": "tuple"
        },
        {
          "components": [
            {
              "internalType": "uint256",
              "name": "id",
              "type": "uint256"
            },
            {
              "internalType": "uint256[]",
              "name": "strikes",
              "type": "uint256[]"
            },
            {
              "internalType": "uint256",
              "name": "expiry",
              "type": "uint256"
            },
            {
              "internalType": "uint256",
              "name": "iv",
              "type": "uint256"
            },
            {
              "components": [
                {
                  "internalType": "int256",
                  "name": "netDelta",
                  "type": "int256"
                },
                {
                  "internalType": "int256",
                  "name": "netStdVega",
                  "type": "int256"
                },
                {
                  "internalType": "int256",
                  "name": "netOptionValue",
                  "type": "int256"
                }
              ],
              "internalType": "struct IOptionGreekCache.NetGreeks",
              "name": "netGreeks",
              "type": "tuple"
            },
            {
              "internalType": "uint256",
              "name": "updatedAt",
              "type": "uint256"
            },
            {
              "internalType": "uint256",
              "name": "updatedAtPrice",
              "type": "uint256"
            },
            {
              "internalType": "uint256",
              "name": "maxSkewVariance",
              "type": "uint256"
            },
            {
              "internalType": "uint256",
              "name": "ivVariance",
              "type": "uint256"
            }
          ],
          "internalType": "struct IOptionGreekCache.OptionBoardCache",
          "name": "boardCache",
          "type": "tuple"
        },
        {
          "internalType": "uint256",
          "name": "vega",
          "type": "uint256"
        }
      ],
      "name": "preparetionPricing",
      "outputs": [
        {
          "components": [
            {
              "internalType": "uint256",
              "name": "optionPrice",
              "type": "uint256"
            },
            {
              "internalType": "int256",
              "name": "preTradeAmmNetStdVega",
              "type": "int256"
            },
            {
              "internalType": "int256",
              "name": "postTradeAmmNetStdVega",
              "type": "int256"
            },
            {
              "internalType": "int256",
              "name": "callDelta",
              "type": "int256"
            },
            {
              "internalType": "uint256",
              "name": "volTraded",
              "type": "uint256"
            },
            {
              "internalType": "uint256",
              "name": "ivVariance",
              "type": "uint256"
            },
            {
              "internalType": "uint256",
              "name": "vega",
              "type": "uint256"
            }
          ],
          "internalType": "struct IOptionGreekCache.TradePricing",
          "name": "pricing",
          "type": "tuple"
        }
      ],
      "stateMutability": "view",
      "type": "function"
    },
    {
      "inputs": [
        {
          "internalType": "uint256",
          "name": "amount",
          "type": "uint256"
        },
        {
          "internalType": "bool",
          "name": "isBuy",
          "type": "bool"
        },
        {
          "internalType": "enum IOptionMarket.TradeDirection",
          "name": "tradeDirection",
          "type": "uint8"
        },
        {
          "internalType": "enum IOptionMarket.OptionType",
          "name": "optionType",
          "type": "uint8"
        },
        {
          "internalType": "bool",
          "name": "isForceClose",
          "type": "bool"
        }
      ],
      "name": "preparetionTrade",
      "outputs": [
        {
          "components": [
            {
              "internalType": "bool",
              "name": "isBuy",
              "type": "bool"
            },
            {
              "internalType": "bool",
              "name": "isForceClose",
              "type": "bool"
            },
            {
              "internalType": "enum IOptionMarket.TradeDirection",
              "name": "tradeDirection",
              "type": "uint8"
            },
            {
              "internalType": "enum IOptionMarket.OptionType",
              "name": "optionType",
              "type": "uint8"
            },
            {
              "internalType": "uint256",
              "name": "amount",
              "type": "uint256"
            },
            {
              "internalType": "uint256",
              "name": "expiry",
              "type": "uint256"
            },
            {
              "internalType": "uint256",
              "name": "strikePrice",
              "type": "uint256"
            },
            {
              "internalType": "uint256",
              "name": "spotPrice",
              "type": "uint256"
            },
            {
              "components": [
                {
                  "internalType": "uint256",
                  "name": "freeLiquidity",
                  "type": "uint256"
                },
                {
                  "internalType": "uint256",
                  "name": "burnableLiquidity",
                  "type": "uint256"
                },
                {
                  "internalType": "uint256",
                  "name": "reservedCollatLiquidity",
                  "type": "uint256"
                },
                {
                  "internalType": "uint256",
                  "name": "pendingDeltaLiquidity",
                  "type": "uint256"
                },
                {
                  "internalType": "uint256",
                  "name": "usedDeltaLiquidity",
                  "type": "uint256"
                },
                {
                  "internalType": "uint256",
                  "name": "NAV",
                  "type": "uint256"
                },
                {
                  "internalType": "uint256",
                  "name": "longScaleFactor",
                  "type": "uint256"
                }
              ],
              "internalType": "struct ILiquidityPool.Liquidity",
              "name": "liquidity",
              "type": "tuple"
            }
          ],
          "internalType": "struct IOptionMarket.TradeParameters",
          "name": "trade",
          "type": "tuple"
        }
      ],
      "stateMutability": "view",
      "type": "function"
    }
  ],
  "transactionHash": "0x76a104a08130fe538179f2c510637afa655e90f98f12fee1df9c7847aa3a050d",
  "args": [
    "0x919E5e0C096002cb8a21397D724C4e3EbE77bC15",
    "0xdacEE745b517C9cDfd7F749dFF9eB03f51a27A13",
    "0x7D135662818d3540bd6f23294bFDB6946c52C9AB",
    "0x4b236Ac3B8d4666CbdC4E725C4366382AA30d86b",
    "0xB619913921356904Bf62abA7271E694FD95AA10D"
  ],
  "numDeployments": 1,
  "solcInputHash": "d6aa06f46094ef6cc349ec184dafdae2",
  "bytecode": "0x60806040523480156200001157600080fd5b5060405162003a7538038062003a758339818101604052810190620000379190620001f0565b846000806101000a81548173ffffffffffffffffffffffffffffffffffffffff021916908373ffffffffffffffffffffffffffffffffffffffff16021790555083600160006101000a81548173ffffffffffffffffffffffffffffffffffffffff021916908373ffffffffffffffffffffffffffffffffffffffff16021790555082600260006101000a81548173ffffffffffffffffffffffffffffffffffffffff021916908373ffffffffffffffffffffffffffffffffffffffff16021790555081600360006101000a81548173ffffffffffffffffffffffffffffffffffffffff021916908373ffffffffffffffffffffffffffffffffffffffff16021790555080600460006101000a81548173ffffffffffffffffffffffffffffffffffffffff021916908373ffffffffffffffffffffffffffffffffffffffff160217905550505050505062000278565b600080fd5b600073ffffffffffffffffffffffffffffffffffffffff82169050919050565b6000620001b8826200018b565b9050919050565b620001ca81620001ab565b8114620001d657600080fd5b50565b600081519050620001ea81620001bf565b92915050565b600080600080600060a086880312156200020f576200020e62000186565b5b60006200021f88828901620001d9565b95505060206200023288828901620001d9565b94505060406200024588828901620001d9565b93505060606200025888828901620001d9565b92505060806200026b88828901620001d9565b9150509295509295909350565b6137ed80620002886000396000f3fe608060405234801561001057600080fd5b50600436106100cf5760003560e01c8063a2d804ee1161008c578063b65f4b2a11610066578063b65f4b2a1461024e578063bb4a9f881461027e578063ddfaeb771461029c578063f918b32b146102cc576100cf565b8063a2d804ee146101d0578063a5a249d014610200578063a827e8861461021e576100cf565b8063183a3dfa146100d457806333994cd7146100f257806357193101146101225780635bc8ccc214610152578063665a11ca146101825780638557d638146101a0575b600080fd5b6100dc6102ea565b6040516100e99190611550565b60405180910390f35b61010c600480360381019061010791906115b5565b610310565b6040516101199190611617565b60405180910390f35b61013c600480360381019061013791906117c3565b610489565b6040516101499190611617565b60405180910390f35b61016c60048036038101906101679190611b9f565b610518565b6040516101799190611ca9565b60405180910390f35b61018a6106ae565b6040516101979190611ce5565b60405180910390f35b6101ba60048036038101906101b59190611de0565b6106d4565b6040516101c79190611ef5565b60405180910390f35b6101ea60048036038101906101e59190611f10565b6108ab565b6040516101f79190611617565b60405180910390f35b610208610a11565b6040516102159190611f71565b60405180910390f35b61023860048036038101906102339190611fe9565b610a37565b6040516102459190611617565b60405180910390f35b61026860048036038101906102639190612076565b610f16565b6040516102759190612304565b60405180910390f35b610286611068565b6040516102939190612341565b60405180910390f35b6102b660048036038101906102b1919061235c565b61108c565b6040516102c39190611617565b60405180910390f35b6102d4611277565b6040516102e191906123d0565b60405180910390f35b600360009054906101000a900473ffffffffffffffffffffffffffffffffffffffff1681565b600080600160009054906101000a900473ffffffffffffffffffffffffffffffffffffffff1673ffffffffffffffffffffffffffffffffffffffff16636f2fddc66040518163ffffffff1660e01b815260040161012060405180830381865afa158015610381573d6000803e3d6000fd5b505050506040513d601f19601f820116820180604052508101906103a591906124e0565b90506000600160009054906101000a900473ffffffffffffffffffffffffffffffffffffffff1673ffffffffffffffffffffffffffffffffffffffff1663d44558d28584608001518560a0015186606001516040518563ffffffff1660e01b8152600401610416949392919061250e565b602060405180830381865afa158015610433573d6000803e3d6000fd5b505050506040513d601f19601f820116820180604052508101906104579190612553565b905061047e85610470888461129d90919063ffffffff16565b61129d90919063ffffffff16565b925050509392505050565b600080600160048111156104a05761049f612100565b5b8560048111156104b3576104b2612100565b5b141580156104e557506004808111156104cf576104ce612100565b5b8560048111156104e2576104e1612100565b5b14155b6104f35782602001516104f9565b82600001515b905061050e848261129d90919063ffffffff16565b9150509392505050565b6105206113a7565b6040518060a0016040528061053884604001516112ce565b81526020016105588560600151856060015161129d90919063ffffffff16565b815260200185815260200184604001518152602001600260009054906101000a900473ffffffffffffffffffffffffffffffffffffffff1673ffffffffffffffffffffffffffffffffffffffff16634a51c00960008054906101000a900473ffffffffffffffffffffffffffffffffffffffff166040518263ffffffff1660e01b81526004016105e891906125a1565b602060405180830381865afa158015610605573d6000803e3d6000fd5b505050506040513d601f19601f8201168201806040525081019061062991906125d1565b81525073EAC659b8e6458568D84A278d1a1b286DD1e9511B63036d587890916040518263ffffffff1660e01b81526004016106649190612684565b60c060405180830381865af4158015610681573d6000803e3d6000fd5b505050506040513d601f19601f820116820180604052508101906106a5919061273f565b90509392505050565b600460009054906101000a900473ffffffffffffffffffffffffffffffffffffffff1681565b6106dc6113dd565b6000600360009054906101000a900473ffffffffffffffffffffffffffffffffffffffff1673ffffffffffffffffffffffffffffffffffffffff16636461a97b6040518163ffffffff1660e01b815260040161010060405180830381865afa15801561074c573d6000803e3d6000fd5b505050506040513d601f19601f820116820180604052508101906107709190612871565b905060006107908760a00151886080015161078b91906128ce565b6112e1565b61079d88606001516112e1565b6107a79190612902565b905060006107b88860e001516112e1565b6107c58960c001516112e1565b6107cf9190612902565b9050600061081f6107e78960800151604001516112e1565b8960c001518a60a0015185876107fd9190612945565b6108079190612902565b6108119190612902565b61134e90919063ffffffff16565b90508360a001516020015161083390612989565b856020018181525050808460a001516020015161084f90612989565b6108599190612945565b85604001818152505061087d8860600151886060015161129d90919063ffffffff16565b856080018181525050858560c00181815250508661010001518560a001818152505050505050949350505050565b600080600160009054906101000a900473ffffffffffffffffffffffffffffffffffffffff1673ffffffffffffffffffffffffffffffffffffffff16636f2fddc66040518163ffffffff1660e01b815260040161012060405180830381865afa15801561091c573d6000803e3d6000fd5b505050506040513d601f19601f8201168201806040525081019061094091906124e0565b90506000600160009054906101000a900473ffffffffffffffffffffffffffffffffffffffff1673ffffffffffffffffffffffffffffffffffffffff1663d44558d2858460200151856040015186600001516040518563ffffffff1660e01b81526004016109b1949392919061250e565b602060405180830381865afa1580156109ce573d6000803e3d6000fd5b505050506040513d601f19601f820116820180604052508101906109f29190612553565b9050610a07858261129d90919063ffffffff16565b9250505092915050565b600160009054906101000a900473ffffffffffffffffffffffffffffffffffffffff1681565b600080610a478585898987610f16565b905060008060008054906101000a900473ffffffffffffffffffffffffffffffffffffffff1673ffffffffffffffffffffffffffffffffffffffff1663c4c4a0d08b6040518263ffffffff1660e01b8152600401610aa59190611617565b600060405180830381865afa158015610ac2573d6000803e3d6000fd5b505050506040513d6000823e3d601f19601f82011682018060405250810190610aeb9190612c05565b915091506000600360009054906101000a900473ffffffffffffffffffffffffffffffffffffffff1673ffffffffffffffffffffffffffffffffffffffff1663641c37368c6040518263ffffffff1660e01b8152600401610b4c9190611617565b61018060405180830381865afa158015610b6a573d6000803e3d6000fd5b505050506040513d601f19601f82011682018060405250810190610b8e9190612dbc565b90506000600360009054906101000a900473ffffffffffffffffffffffffffffffffffffffff1673ffffffffffffffffffffffffffffffffffffffff16637fdf17e283602001516040518263ffffffff1660e01b8152600401610bf19190611617565b600060405180830381865afa158015610c0e573d6000803e3d6000fd5b505050506040513d6000823e3d601f19601f82011682018060405250810190610c379190612ee8565b90506000610c4a8660e001518484610518565b90506000610c5e86858585608001516106d4565b90506000600160009054906101000a900473ffffffffffffffffffffffffffffffffffffffff1673ffffffffffffffffffffffffffffffffffffffff166331adee8e8986606001518a604001516040518463ffffffff1660e01b8152600401610cc993929190612f31565b6040805180830381865afa158015610ce5573d6000803e3d6000fd5b505050506040513d601f19601f82011682018060405250810190610d099190612f6b565b9150506000610d198e8e86610489565b90506000610d2b8289602001516108ab565b90506000610d468b60e001518c608001518b60200151610310565b90506000600160009054906101000a900473ffffffffffffffffffffffffffffffffffffffff1673ffffffffffffffffffffffffffffffffffffffff16638e8fd8b98d886040518363ffffffff1660e01b8152600401610da7929190612fab565b60c060405180830381865afa158015610dc4573d6000803e3d6000fd5b505050506040513d601f19601f82011682018060405250810190610de89190613076565b90506000600160009054906101000a900473ffffffffffffffffffffffffffffffffffffffff1673ffffffffffffffffffffffffffffffffffffffff1663140c12578e89896040518463ffffffff1660e01b8152600401610e4b939291906130a3565b61010060405180830381865afa158015610e69573d6000803e3d6000fd5b505050506040513d601f19601f82011682018060405250810190610e8d91906131a7565b905060008160e001518360a001518587610ea791906128ce565b610eb191906128ce565b610ebb91906128ce565b90508d6000015115610eda578086610ed391906128ce565b9e50610efe565b85811115610eee5785905060009e50610efd565b8086610efa91906131d5565b9e505b5b50505050505050505050505050509695505050505050565b610f1e61141a565b600460009054906101000a900473ffffffffffffffffffffffffffffffffffffffff1673ffffffffffffffffffffffffffffffffffffffff16630910a5106040518163ffffffff1660e01b815260040160e060405180830381865afa158015610f8b573d6000803e3d6000fd5b505050506040513d601f19601f82011682018060405250810190610faf91906132bd565b60a0015181610100015160a0018181525050858160800181815250508181602001901515908115158152505084816000019015159081151581525050610ff684848461108c565b8160e0018181525050828160600190600481111561101757611016612100565b5b9081600481111561102b5761102a612100565b5b81525050838160400190600281111561104757611046612100565b5b9081600281111561105b5761105a612100565b5b8152505095945050505050565b60008054906101000a900473ffffffffffffffffffffffffffffffffffffffff1681565b6000806002808111156110a2576110a1612100565b5b8560028111156110b5576110b4612100565b5b036110c357600290506111af565b600060048111156110d7576110d6612100565b5b8460048111156110ea576110e9612100565b5b1480611119575060048081111561110457611103612100565b5b84600481111561111757611116612100565b5b145b15611168576000600281111561113257611131612100565b5b85600281111561114557611144612100565b5b1461115e5782611156576000611159565b60035b611161565b60015b90506111ae565b6000600281111561117c5761117b612100565b5b85600281111561118f5761118e612100565b5b146111a857826111a05760016111a3565b60045b6111ab565b60005b90505b5b600260009054906101000a900473ffffffffffffffffffffffffffffffffffffffff1673ffffffffffffffffffffffffffffffffffffffff166373cbfc6960008054906101000a900473ffffffffffffffffffffffffffffffffffffffff16836040518363ffffffff1660e01b815260040161122c929190613332565b602060405180830381865afa158015611249573d6000803e3d6000fd5b505050506040513d601f19601f8201168201806040525081019061126d9190612553565b9150509392505050565b600260009054906101000a900473ffffffffffffffffffffffffffffffffffffffff1681565b6000601260ff16600a6112b0919061348e565b82846112bc91906134d9565b6112c69190613562565b905092915050565b60006112da428361137f565b9050919050565b60007f7fffffffffffffffffffffffffffffffffffffffffffffffffffffffffffffff821115611346576040517f08c379a000000000000000000000000000000000000000000000000000000000815260040161133d90613616565b60405180910390fd5b819050919050565b6000601260ff16600a611361919061348e565b828461136d9190613636565b611377919061374d565b905092915050565b60008282111561139c57828261139591906131d5565b90506113a1565b600090505b92915050565b6040518060c001604052806000815260200160008152602001600081526020016000815260200160008152602001600081525090565b6040518060e00160405280600081526020016000815260200160008152602001600081526020016000815260200160008152602001600081525090565b6040518061012001604052806000151581526020016000151581526020016000600281111561144c5761144b612100565b5b81526020016000600481111561146557611464612100565b5b81526020016000815260200160008152602001600081526020016000815260200161148e611494565b81525090565b6040518060e00160405280600081526020016000815260200160008152602001600081526020016000815260200160008152602001600081525090565b600073ffffffffffffffffffffffffffffffffffffffff82169050919050565b6000819050919050565b600061151661151161150c846114d1565b6114f1565b6114d1565b9050919050565b6000611528826114fb565b9050919050565b600061153a8261151d565b9050919050565b61154a8161152f565b82525050565b60006020820190506115656000830184611541565b92915050565b6000604051905090565b600080fd5b600080fd5b6000819050919050565b6115928161157f565b811461159d57600080fd5b50565b6000813590506115af81611589565b92915050565b6000806000606084860312156115ce576115cd611575565b5b60006115dc868287016115a0565b93505060206115ed868287016115a0565b92505060406115fe868287016115a0565b9150509250925092565b6116118161157f565b82525050565b600060208201905061162c6000830184611608565b92915050565b6005811061163f57600080fd5b50565b60008135905061165181611632565b92915050565b600080fd5b6000601f19601f8301169050919050565b7f4e487b7100000000000000000000000000000000000000000000000000000000600052604160045260246000fd5b6116a58261165c565b810181811067ffffffffffffffff821117156116c4576116c361166d565b5b80604052505050565b60006116d761156b565b90506116e3828261169c565b919050565b600080fd5b6000819050919050565b611700816116ed565b811461170b57600080fd5b50565b60008135905061171d816116f7565b92915050565b600060c0828403121561173957611738611657565b5b61174360c06116cd565b90506000611753848285016115a0565b6000830152506020611767848285016115a0565b602083015250604061177b8482850161170e565b604083015250606061178f8482850161170e565b60608301525060806117a3848285016115a0565b60808301525060a06117b7848285016115a0565b60a08301525092915050565b600080600061010084860312156117dd576117dc611575565b5b60006117eb86828701611642565b93505060206117fc868287016115a0565b925050604061180d86828701611723565b9150509250925092565b600060a0828403121561182d5761182c611657565b5b61183760a06116cd565b905060006118478482850161170e565b600083015250602061185b8482850161170e565b602083015250604061186f848285016115a0565b6040830152506060611883848285016115a0565b6060830152506080611897848285016115a0565b60808301525092915050565b600061018082840312156118ba576118b9611657565b5b6118c56101006116cd565b905060006118d5848285016115a0565b60008301525060206118e9848285016115a0565b60208301525060406118fd848285016115a0565b6040830152506060611911848285016115a0565b606083015250608061192584828501611817565b60808301525061012061193a8482850161170e565b60a08301525061014061194f8482850161170e565b60c083015250610160611964848285016115a0565b60e08301525092915050565b600080fd5b600067ffffffffffffffff8211156119905761198f61166d565b5b602082029050602081019050919050565b600080fd5b60006119b96119b484611975565b6116cd565b905080838252602082019050602084028301858111156119dc576119db6119a1565b5b835b81811015611a0557806119f188826115a0565b8452602084019350506020810190506119de565b5050509392505050565b600082601f830112611a2457611a23611970565b5b8135611a348482602086016119a6565b91505092915050565b600060608284031215611a5357611a52611657565b5b611a5d60606116cd565b90506000611a6d8482850161170e565b6000830152506020611a818482850161170e565b6020830152506040611a958482850161170e565b60408301525092915050565b60006101608284031215611ab857611ab7611657565b5b611ac36101206116cd565b90506000611ad3848285016115a0565b600083015250602082013567ffffffffffffffff811115611af757611af66116e8565b5b611b0384828501611a0f565b6020830152506040611b17848285016115a0565b6040830152506060611b2b848285016115a0565b6060830152506080611b3f84828501611a3d565b60808301525060e0611b53848285016115a0565b60a083015250610100611b68848285016115a0565b60c083015250610120611b7d848285016115a0565b60e083015250610140611b92848285016115a0565b6101008301525092915050565b60008060006101c08486031215611bb957611bb8611575565b5b6000611bc7868287016115a0565b9350506020611bd8868287016118a3565b9250506101a084013567ffffffffffffffff811115611bfa57611bf961157a565b5b611c0686828701611aa1565b9150509250925092565b611c198161157f565b82525050565b611c28816116ed565b82525050565b60c082016000820151611c446000850182611c10565b506020820151611c576020850182611c10565b506040820151611c6a6040850182611c1f565b506060820151611c7d6060850182611c1f565b506080820151611c906080850182611c10565b5060a0820151611ca360a0850182611c10565b50505050565b600060c082019050611cbe6000830184611c2e565b92915050565b6000611ccf8261151d565b9050919050565b611cdf81611cc4565b82525050565b6000602082019050611cfa6000830184611cd6565b92915050565b60006101208284031215611d1757611d16611657565b5b611d226101206116cd565b90506000611d32848285016115a0565b6000830152506020611d46848285016115a0565b6020830152506040611d5a848285016115a0565b6040830152506060611d6e848285016115a0565b6060830152506080611d82848285016115a0565b60808301525060a0611d96848285016115a0565b60a08301525060c0611daa848285016115a0565b60c08301525060e0611dbe848285016115a0565b60e083015250610100611dd3848285016115a0565b6101008301525092915050565b6000806000806102e08587031215611dfb57611dfa611575565b5b6000611e0987828801611d00565b945050610120611e1b878288016118a3565b9350506102a085013567ffffffffffffffff811115611e3d57611e3c61157a565b5b611e4987828801611aa1565b9250506102c0611e5b878288016115a0565b91505092959194509250565b60e082016000820151611e7d6000850182611c10565b506020820151611e906020850182611c1f565b506040820151611ea36040850182611c1f565b506060820151611eb66060850182611c1f565b506080820151611ec96080850182611c10565b5060a0820151611edc60a0850182611c10565b5060c0820151611eef60c0850182611c10565b50505050565b600060e082019050611f0a6000830184611e67565b92915050565b60008060408385031215611f2757611f26611575565b5b6000611f35858286016115a0565b9250506020611f46858286016115a0565b9150509250929050565b6000611f5b8261151d565b9050919050565b611f6b81611f50565b82525050565b6000602082019050611f866000830184611f62565b92915050565b60038110611f9957600080fd5b50565b600081359050611fab81611f8c565b92915050565b60008115159050919050565b611fc681611fb1565b8114611fd157600080fd5b50565b600081359050611fe381611fbd565b92915050565b60008060008060008060c0878903121561200657612005611575565b5b600061201489828a016115a0565b965050602061202589828a01611f9c565b955050604061203689828a01611642565b945050606061204789828a016115a0565b935050608061205889828a01611fd4565b92505060a061206989828a01611fd4565b9150509295509295509295565b600080600080600060a0868803121561209257612091611575565b5b60006120a0888289016115a0565b95505060206120b188828901611fd4565b94505060406120c288828901611f9c565b93505060606120d388828901611642565b92505060806120e488828901611fd4565b9150509295509295909350565b6120fa81611fb1565b82525050565b7f4e487b7100000000000000000000000000000000000000000000000000000000600052602160045260246000fd5b600381106121405761213f612100565b5b50565b60008190506121518261212f565b919050565b600061216182612143565b9050919050565b61217181612156565b82525050565b6005811061218857612187612100565b5b50565b600081905061219982612177565b919050565b60006121a98261218b565b9050919050565b6121b98161219e565b82525050565b60e0820160008201516121d56000850182611c10565b5060208201516121e86020850182611c10565b5060408201516121fb6040850182611c10565b50606082015161220e6060850182611c10565b5060808201516122216080850182611c10565b5060a082015161223460a0850182611c10565b5060c082015161224760c0850182611c10565b50505050565b6101e08201600082015161226460008501826120f1565b50602082015161227760208501826120f1565b50604082015161228a6040850182612168565b50606082015161229d60608501826121b0565b5060808201516122b06080850182611c10565b5060a08201516122c360a0850182611c10565b5060c08201516122d660c0850182611c10565b5060e08201516122e960e0850182611c10565b506101008201516122fe6101008501826121bf565b50505050565b60006101e08201905061231a600083018461224d565b92915050565b600061232b8261151d565b9050919050565b61233b81612320565b82525050565b60006020820190506123566000830184612332565b92915050565b60008060006060848603121561237557612374611575565b5b600061238386828701611f9c565b935050602061239486828701611642565b92505060406123a586828701611fd4565b9150509250925092565b60006123ba8261151d565b9050919050565b6123ca816123af565b82525050565b60006020820190506123e560008301846123c1565b92915050565b6000815190506123fa81611589565b92915050565b6000610120828403121561241757612416611657565b5b6124226101206116cd565b90506000612432848285016123eb565b6000830152506020612446848285016123eb565b602083015250604061245a848285016123eb565b604083015250606061246e848285016123eb565b6060830152506080612482848285016123eb565b60808301525060a0612496848285016123eb565b60a08301525060c06124aa848285016123eb565b60c08301525060e06124be848285016123eb565b60e0830152506101006124d3848285016123eb565b6101008301525092915050565b600061012082840312156124f7576124f6611575565b5b600061250584828501612400565b91505092915050565b60006080820190506125236000830187611608565b6125306020830186611608565b61253d6040830185611608565b61254a6060830184611608565b95945050505050565b60006020828403121561256957612568611575565b5b6000612577848285016123eb565b91505092915050565b600061258b826114d1565b9050919050565b61259b81612580565b82525050565b60006020820190506125b66000830184612592565b92915050565b6000815190506125cb816116f7565b92915050565b6000602082840312156125e7576125e6611575565b5b60006125f5848285016125bc565b91505092915050565b6126078161157f565b82525050565b612616816116ed565b82525050565b60a08201600082015161263260008501826125fe565b50602082015161264560208501826125fe565b50604082015161265860408501826125fe565b50606082015161266b60608501826125fe565b50608082015161267e608085018261260d565b50505050565b600060a082019050612699600083018461261c565b92915050565b600060c082840312156126b5576126b4611657565b5b6126bf60c06116cd565b905060006126cf848285016123eb565b60008301525060206126e3848285016123eb565b60208301525060406126f7848285016125bc565b604083015250606061270b848285016125bc565b606083015250608061271f848285016123eb565b60808301525060a0612733848285016123eb565b60a08301525092915050565b600060c0828403121561275557612754611575565b5b60006127638482850161269f565b91505092915050565b60006060828403121561278257612781611657565b5b61278c60606116cd565b9050600061279c848285016125bc565b60008301525060206127b0848285016125bc565b60208301525060406127c4848285016125bc565b60408301525092915050565b600061010082840312156127e7576127e6611657565b5b6127f160c06116cd565b90506000612801848285016123eb565b6000830152506020612815848285016123eb565b6020830152506040612829848285016123eb565b604083015250606061283d848285016123eb565b6060830152506080612851848285016123eb565b60808301525060a06128658482850161276c565b60a08301525092915050565b6000610100828403121561288857612887611575565b5b6000612896848285016127d0565b91505092915050565b7f4e487b7100000000000000000000000000000000000000000000000000000000600052601160045260246000fd5b60006128d98261157f565b91506128e48361157f565b92508282019050808211156128fc576128fb61289f565b5b92915050565b600061290d826116ed565b9150612918836116ed565b925082820390508181126000841216828213600085121516171561293f5761293e61289f565b5b92915050565b6000612950826116ed565b915061295b836116ed565b9250828201905082811215600083121683821260008412151617156129835761298261289f565b5b92915050565b6000612994826116ed565b91507f800000000000000000000000000000000000000000000000000000000000000082036129c6576129c561289f565b5b816000039050919050565b600061012082840312156129e8576129e7611657565b5b6129f36101206116cd565b90506000612a03848285016123eb565b6000830152506020612a17848285016123eb565b6020830152506040612a2b848285016123eb565b6040830152506060612a3f848285016123eb565b6060830152506080612a53848285016123eb565b60808301525060a0612a67848285016123eb565b60a08301525060c0612a7b848285016123eb565b60c08301525060e0612a8f848285016123eb565b60e083015250610100612aa4848285016123eb565b6101008301525092915050565b600081519050612ac081611fbd565b92915050565b6000612ad9612ad484611975565b6116cd565b90508083825260208201905060208402830185811115612afc57612afb6119a1565b5b835b81811015612b255780612b1188826123eb565b845260208401935050602081019050612afe565b5050509392505050565b600082601f830112612b4457612b43611970565b5b8151612b54848260208601612ac6565b91505092915050565b600060a08284031215612b7357612b72611657565b5b612b7d60a06116cd565b90506000612b8d848285016123eb565b6000830152506020612ba1848285016123eb565b6020830152506040612bb5848285016123eb565b6040830152506060612bc984828501612ab1565b606083015250608082015167ffffffffffffffff811115612bed57612bec6116e8565b5b612bf984828501612b2f565b60808301525092915050565b6000806101408385031215612c1d57612c1c611575565b5b6000612c2b858286016129d1565b92505061012083015167ffffffffffffffff811115612c4d57612c4c61157a565b5b612c5985828601612b5d565b9150509250929050565b600060a08284031215612c7957612c78611657565b5b612c8360a06116cd565b90506000612c93848285016125bc565b6000830152506020612ca7848285016125bc565b6020830152506040612cbb848285016123eb565b6040830152506060612ccf848285016123eb565b6060830152506080612ce3848285016123eb565b60808301525092915050565b60006101808284031215612d0657612d05611657565b5b612d116101006116cd565b90506000612d21848285016123eb565b6000830152506020612d35848285016123eb565b6020830152506040612d49848285016123eb565b6040830152506060612d5d848285016123eb565b6060830152506080612d7184828501612c63565b608083015250610120612d86848285016125bc565b60a083015250610140612d9b848285016125bc565b60c083015250610160612db0848285016123eb565b60e08301525092915050565b60006101808284031215612dd357612dd2611575565b5b6000612de184828501612cef565b91505092915050565b60006101608284031215612e0157612e00611657565b5b612e0c6101206116cd565b90506000612e1c848285016123eb565b600083015250602082015167ffffffffffffffff811115612e4057612e3f6116e8565b5b612e4c84828501612b2f565b6020830152506040612e60848285016123eb565b6040830152506060612e74848285016123eb565b6060830152506080612e888482850161276c565b60808301525060e0612e9c848285016123eb565b60a083015250610100612eb1848285016123eb565b60c083015250610120612ec6848285016123eb565b60e083015250610140612edb848285016123eb565b6101008301525092915050565b600060208284031215612efe57612efd611575565b5b600082015167ffffffffffffffff811115612f1c57612f1b61157a565b5b612f2884828501612dea565b91505092915050565b600061022082019050612f47600083018661224d565b612f556101e0830185611608565b612f63610200830184611608565b949350505050565b60008060408385031215612f8257612f81611575565b5b6000612f90858286016123eb565b9250506020612fa1858286016123eb565b9150509250929050565b60006102c082019050612fc1600083018561224d565b612fcf6101e0830184611e67565b9392505050565b600060c08284031215612fec57612feb611657565b5b612ff660c06116cd565b90506000613006848285016125bc565b600083015250602061301a848285016125bc565b602083015250604061302e848285016123eb565b6040830152506060613042848285016123eb565b6060830152506080613056848285016123eb565b60808301525060a061306a848285016123eb565b60a08301525092915050565b600060c0828403121561308c5761308b611575565b5b600061309a84828501612fd6565b91505092915050565b60006102e0820190506130b9600083018661224d565b6130c76101e0830185611e67565b6130d56102c0830184611608565b949350505050565b600061010082840312156130f4576130f3611657565b5b6130ff6101006116cd565b9050600061310f848285016123eb565b6000830152506020613123848285016123eb565b6020830152506040613137848285016123eb565b604083015250606061314b848285016123eb565b606083015250608061315f848285016123eb565b60808301525060a0613173848285016123eb565b60a08301525060c0613187848285016123eb565b60c08301525060e061319b848285016123eb565b60e08301525092915050565b600061010082840312156131be576131bd611575565b5b60006131cc848285016130dd565b91505092915050565b60006131e08261157f565b91506131eb8361157f565b92508282039050818111156132035761320261289f565b5b92915050565b600060e0828403121561321f5761321e611657565b5b61322960e06116cd565b90506000613239848285016123eb565b600083015250602061324d848285016123eb565b6020830152506040613261848285016123eb565b6040830152506060613275848285016123eb565b6060830152506080613289848285016123eb565b60808301525060a061329d848285016123eb565b60a08301525060c06132b1848285016123eb565b60c08301525092915050565b600060e082840312156132d3576132d2611575565b5b60006132e184828501613209565b91505092915050565b600581106132fb576132fa612100565b5b50565b600081905061330c826132ea565b919050565b600061331c826132fe565b9050919050565b61332c81613311565b82525050565b60006040820190506133476000830185612592565b6133546020830184613323565b9392505050565b60008160011c9050919050565b6000808291508390505b60018511156133b25780860481111561338e5761338d61289f565b5b600185161561339d5780820291505b80810290506133ab8561335b565b9450613372565b94509492505050565b6000826133cb5760019050613487565b816133d95760009050613487565b81600181146133ef57600281146133f957613428565b6001915050613487565b60ff84111561340b5761340a61289f565b5b8360020a9150848211156134225761342161289f565b5b50613487565b5060208310610133831016604e8410600b841016171561345d5782820a9050838111156134585761345761289f565b5b613487565b61346a8484846001613368565b925090508184048111156134815761348061289f565b5b81810290505b9392505050565b60006134998261157f565b91506134a48361157f565b92506134d17fffffffffffffffffffffffffffffffffffffffffffffffffffffffffffffffff84846133bb565b905092915050565b60006134e48261157f565b91506134ef8361157f565b9250817fffffffffffffffffffffffffffffffffffffffffffffffffffffffffffffffff04831182151516156135285761352761289f565b5b828202905092915050565b7f4e487b7100000000000000000000000000000000000000000000000000000000600052601260045260246000fd5b600061356d8261157f565b91506135788361157f565b92508261358857613587613533565b5b828204905092915050565b600082825260208201905092915050565b7f53616665436173743a2076616c756520646f65736e27742066697420696e206160008201527f6e20696e74323536000000000000000000000000000000000000000000000000602082015250565b6000613600602883613593565b915061360b826135a4565b604082019050919050565b6000602082019050818103600083015261362f816135f3565b9050919050565b6000613641826116ed565b915061364c836116ed565b9250827f7fffffffffffffffffffffffffffffffffffffffffffffffffffffffffffffff048211600084136000841316161561368b5761368a61289f565b5b817f800000000000000000000000000000000000000000000000000000000000000005831260008412600084131616156136c8576136c761289f565b5b827f800000000000000000000000000000000000000000000000000000000000000005821260008413600084121616156137055761370461289f565b5b827f7fffffffffffffffffffffffffffffffffffffffffffffffffffffffffffffff05821260008412600084121616156137425761374161289f565b5b828202905092915050565b6000613758826116ed565b9150613763836116ed565b92508261377357613772613533565b5b600160000383147f8000000000000000000000000000000000000000000000000000000000000000831416156137ac576137ab61289f565b5b82820590509291505056fea2646970667358221220055beeec0b3c6eb4be0267a6a078b71cb8265c80f75332a171ab4af5bc308b8664736f6c63430008100033",
  "deployedBytecode": "0x608060405234801561001057600080fd5b50600436106100cf5760003560e01c8063a2d804ee1161008c578063b65f4b2a11610066578063b65f4b2a1461024e578063bb4a9f881461027e578063ddfaeb771461029c578063f918b32b146102cc576100cf565b8063a2d804ee146101d0578063a5a249d014610200578063a827e8861461021e576100cf565b8063183a3dfa146100d457806333994cd7146100f257806357193101146101225780635bc8ccc214610152578063665a11ca146101825780638557d638146101a0575b600080fd5b6100dc6102ea565b6040516100e99190611550565b60405180910390f35b61010c600480360381019061010791906115b5565b610310565b6040516101199190611617565b60405180910390f35b61013c600480360381019061013791906117c3565b610489565b6040516101499190611617565b60405180910390f35b61016c60048036038101906101679190611b9f565b610518565b6040516101799190611ca9565b60405180910390f35b61018a6106ae565b6040516101979190611ce5565b60405180910390f35b6101ba60048036038101906101b59190611de0565b6106d4565b6040516101c79190611ef5565b60405180910390f35b6101ea60048036038101906101e59190611f10565b6108ab565b6040516101f79190611617565b60405180910390f35b610208610a11565b6040516102159190611f71565b60405180910390f35b61023860048036038101906102339190611fe9565b610a37565b6040516102459190611617565b60405180910390f35b61026860048036038101906102639190612076565b610f16565b6040516102759190612304565b60405180910390f35b610286611068565b6040516102939190612341565b60405180910390f35b6102b660048036038101906102b1919061235c565b61108c565b6040516102c39190611617565b60405180910390f35b6102d4611277565b6040516102e191906123d0565b60405180910390f35b600360009054906101000a900473ffffffffffffffffffffffffffffffffffffffff1681565b600080600160009054906101000a900473ffffffffffffffffffffffffffffffffffffffff1673ffffffffffffffffffffffffffffffffffffffff16636f2fddc66040518163ffffffff1660e01b815260040161012060405180830381865afa158015610381573d6000803e3d6000fd5b505050506040513d601f19601f820116820180604052508101906103a591906124e0565b90506000600160009054906101000a900473ffffffffffffffffffffffffffffffffffffffff1673ffffffffffffffffffffffffffffffffffffffff1663d44558d28584608001518560a0015186606001516040518563ffffffff1660e01b8152600401610416949392919061250e565b602060405180830381865afa158015610433573d6000803e3d6000fd5b505050506040513d601f19601f820116820180604052508101906104579190612553565b905061047e85610470888461129d90919063ffffffff16565b61129d90919063ffffffff16565b925050509392505050565b600080600160048111156104a05761049f612100565b5b8560048111156104b3576104b2612100565b5b141580156104e557506004808111156104cf576104ce612100565b5b8560048111156104e2576104e1612100565b5b14155b6104f35782602001516104f9565b82600001515b905061050e848261129d90919063ffffffff16565b9150509392505050565b6105206113a7565b6040518060a0016040528061053884604001516112ce565b81526020016105588560600151856060015161129d90919063ffffffff16565b815260200185815260200184604001518152602001600260009054906101000a900473ffffffffffffffffffffffffffffffffffffffff1673ffffffffffffffffffffffffffffffffffffffff16634a51c00960008054906101000a900473ffffffffffffffffffffffffffffffffffffffff166040518263ffffffff1660e01b81526004016105e891906125a1565b602060405180830381865afa158015610605573d6000803e3d6000fd5b505050506040513d601f19601f8201168201806040525081019061062991906125d1565b81525073__$eb86d565a3113b3c398b1080d0d395c3b4$__63036d587890916040518263ffffffff1660e01b81526004016106649190612684565b60c060405180830381865af4158015610681573d6000803e3d6000fd5b505050506040513d601f19601f820116820180604052508101906106a5919061273f565b90509392505050565b600460009054906101000a900473ffffffffffffffffffffffffffffffffffffffff1681565b6106dc6113dd565b6000600360009054906101000a900473ffffffffffffffffffffffffffffffffffffffff1673ffffffffffffffffffffffffffffffffffffffff16636461a97b6040518163ffffffff1660e01b815260040161010060405180830381865afa15801561074c573d6000803e3d6000fd5b505050506040513d601f19601f820116820180604052508101906107709190612871565b905060006107908760a00151886080015161078b91906128ce565b6112e1565b61079d88606001516112e1565b6107a79190612902565b905060006107b88860e001516112e1565b6107c58960c001516112e1565b6107cf9190612902565b9050600061081f6107e78960800151604001516112e1565b8960c001518a60a0015185876107fd9190612945565b6108079190612902565b6108119190612902565b61134e90919063ffffffff16565b90508360a001516020015161083390612989565b856020018181525050808460a001516020015161084f90612989565b6108599190612945565b85604001818152505061087d8860600151886060015161129d90919063ffffffff16565b856080018181525050858560c00181815250508661010001518560a001818152505050505050949350505050565b600080600160009054906101000a900473ffffffffffffffffffffffffffffffffffffffff1673ffffffffffffffffffffffffffffffffffffffff16636f2fddc66040518163ffffffff1660e01b815260040161012060405180830381865afa15801561091c573d6000803e3d6000fd5b505050506040513d601f19601f8201168201806040525081019061094091906124e0565b90506000600160009054906101000a900473ffffffffffffffffffffffffffffffffffffffff1673ffffffffffffffffffffffffffffffffffffffff1663d44558d2858460200151856040015186600001516040518563ffffffff1660e01b81526004016109b1949392919061250e565b602060405180830381865afa1580156109ce573d6000803e3d6000fd5b505050506040513d601f19601f820116820180604052508101906109f29190612553565b9050610a07858261129d90919063ffffffff16565b9250505092915050565b600160009054906101000a900473ffffffffffffffffffffffffffffffffffffffff1681565b600080610a478585898987610f16565b905060008060008054906101000a900473ffffffffffffffffffffffffffffffffffffffff1673ffffffffffffffffffffffffffffffffffffffff1663c4c4a0d08b6040518263ffffffff1660e01b8152600401610aa59190611617565b600060405180830381865afa158015610ac2573d6000803e3d6000fd5b505050506040513d6000823e3d601f19601f82011682018060405250810190610aeb9190612c05565b915091506000600360009054906101000a900473ffffffffffffffffffffffffffffffffffffffff1673ffffffffffffffffffffffffffffffffffffffff1663641c37368c6040518263ffffffff1660e01b8152600401610b4c9190611617565b61018060405180830381865afa158015610b6a573d6000803e3d6000fd5b505050506040513d601f19601f82011682018060405250810190610b8e9190612dbc565b90506000600360009054906101000a900473ffffffffffffffffffffffffffffffffffffffff1673ffffffffffffffffffffffffffffffffffffffff16637fdf17e283602001516040518263ffffffff1660e01b8152600401610bf19190611617565b600060405180830381865afa158015610c0e573d6000803e3d6000fd5b505050506040513d6000823e3d601f19601f82011682018060405250810190610c379190612ee8565b90506000610c4a8660e001518484610518565b90506000610c5e86858585608001516106d4565b90506000600160009054906101000a900473ffffffffffffffffffffffffffffffffffffffff1673ffffffffffffffffffffffffffffffffffffffff166331adee8e8986606001518a604001516040518463ffffffff1660e01b8152600401610cc993929190612f31565b6040805180830381865afa158015610ce5573d6000803e3d6000fd5b505050506040513d601f19601f82011682018060405250810190610d099190612f6b565b9150506000610d198e8e86610489565b90506000610d2b8289602001516108ab565b90506000610d468b60e001518c608001518b60200151610310565b90506000600160009054906101000a900473ffffffffffffffffffffffffffffffffffffffff1673ffffffffffffffffffffffffffffffffffffffff16638e8fd8b98d886040518363ffffffff1660e01b8152600401610da7929190612fab565b60c060405180830381865afa158015610dc4573d6000803e3d6000fd5b505050506040513d601f19601f82011682018060405250810190610de89190613076565b90506000600160009054906101000a900473ffffffffffffffffffffffffffffffffffffffff1673ffffffffffffffffffffffffffffffffffffffff1663140c12578e89896040518463ffffffff1660e01b8152600401610e4b939291906130a3565b61010060405180830381865afa158015610e69573d6000803e3d6000fd5b505050506040513d601f19601f82011682018060405250810190610e8d91906131a7565b905060008160e001518360a001518587610ea791906128ce565b610eb191906128ce565b610ebb91906128ce565b90508d6000015115610eda578086610ed391906128ce565b9e50610efe565b85811115610eee5785905060009e50610efd565b8086610efa91906131d5565b9e505b5b50505050505050505050505050509695505050505050565b610f1e61141a565b600460009054906101000a900473ffffffffffffffffffffffffffffffffffffffff1673ffffffffffffffffffffffffffffffffffffffff16630910a5106040518163ffffffff1660e01b815260040160e060405180830381865afa158015610f8b573d6000803e3d6000fd5b505050506040513d601f19601f82011682018060405250810190610faf91906132bd565b60a0015181610100015160a0018181525050858160800181815250508181602001901515908115158152505084816000019015159081151581525050610ff684848461108c565b8160e0018181525050828160600190600481111561101757611016612100565b5b9081600481111561102b5761102a612100565b5b81525050838160400190600281111561104757611046612100565b5b9081600281111561105b5761105a612100565b5b8152505095945050505050565b60008054906101000a900473ffffffffffffffffffffffffffffffffffffffff1681565b6000806002808111156110a2576110a1612100565b5b8560028111156110b5576110b4612100565b5b036110c357600290506111af565b600060048111156110d7576110d6612100565b5b8460048111156110ea576110e9612100565b5b1480611119575060048081111561110457611103612100565b5b84600481111561111757611116612100565b5b145b15611168576000600281111561113257611131612100565b5b85600281111561114557611144612100565b5b1461115e5782611156576000611159565b60035b611161565b60015b90506111ae565b6000600281111561117c5761117b612100565b5b85600281111561118f5761118e612100565b5b146111a857826111a05760016111a3565b60045b6111ab565b60005b90505b5b600260009054906101000a900473ffffffffffffffffffffffffffffffffffffffff1673ffffffffffffffffffffffffffffffffffffffff166373cbfc6960008054906101000a900473ffffffffffffffffffffffffffffffffffffffff16836040518363ffffffff1660e01b815260040161122c929190613332565b602060405180830381865afa158015611249573d6000803e3d6000fd5b505050506040513d601f19601f8201168201806040525081019061126d9190612553565b9150509392505050565b600260009054906101000a900473ffffffffffffffffffffffffffffffffffffffff1681565b6000601260ff16600a6112b0919061348e565b82846112bc91906134d9565b6112c69190613562565b905092915050565b60006112da428361137f565b9050919050565b60007f7fffffffffffffffffffffffffffffffffffffffffffffffffffffffffffffff821115611346576040517f08c379a000000000000000000000000000000000000000000000000000000000815260040161133d90613616565b60405180910390fd5b819050919050565b6000601260ff16600a611361919061348e565b828461136d9190613636565b611377919061374d565b905092915050565b60008282111561139c57828261139591906131d5565b90506113a1565b600090505b92915050565b6040518060c001604052806000815260200160008152602001600081526020016000815260200160008152602001600081525090565b6040518060e00160405280600081526020016000815260200160008152602001600081526020016000815260200160008152602001600081525090565b6040518061012001604052806000151581526020016000151581526020016000600281111561144c5761144b612100565b5b81526020016000600481111561146557611464612100565b5b81526020016000815260200160008152602001600081526020016000815260200161148e611494565b81525090565b6040518060e00160405280600081526020016000815260200160008152602001600081526020016000815260200160008152602001600081525090565b600073ffffffffffffffffffffffffffffffffffffffff82169050919050565b6000819050919050565b600061151661151161150c846114d1565b6114f1565b6114d1565b9050919050565b6000611528826114fb565b9050919050565b600061153a8261151d565b9050919050565b61154a8161152f565b82525050565b60006020820190506115656000830184611541565b92915050565b6000604051905090565b600080fd5b600080fd5b6000819050919050565b6115928161157f565b811461159d57600080fd5b50565b6000813590506115af81611589565b92915050565b6000806000606084860312156115ce576115cd611575565b5b60006115dc868287016115a0565b93505060206115ed868287016115a0565b92505060406115fe868287016115a0565b9150509250925092565b6116118161157f565b82525050565b600060208201905061162c6000830184611608565b92915050565b6005811061163f57600080fd5b50565b60008135905061165181611632565b92915050565b600080fd5b6000601f19601f8301169050919050565b7f4e487b7100000000000000000000000000000000000000000000000000000000600052604160045260246000fd5b6116a58261165c565b810181811067ffffffffffffffff821117156116c4576116c361166d565b5b80604052505050565b60006116d761156b565b90506116e3828261169c565b919050565b600080fd5b6000819050919050565b611700816116ed565b811461170b57600080fd5b50565b60008135905061171d816116f7565b92915050565b600060c0828403121561173957611738611657565b5b61174360c06116cd565b90506000611753848285016115a0565b6000830152506020611767848285016115a0565b602083015250604061177b8482850161170e565b604083015250606061178f8482850161170e565b60608301525060806117a3848285016115a0565b60808301525060a06117b7848285016115a0565b60a08301525092915050565b600080600061010084860312156117dd576117dc611575565b5b60006117eb86828701611642565b93505060206117fc868287016115a0565b925050604061180d86828701611723565b9150509250925092565b600060a0828403121561182d5761182c611657565b5b61183760a06116cd565b905060006118478482850161170e565b600083015250602061185b8482850161170e565b602083015250604061186f848285016115a0565b6040830152506060611883848285016115a0565b6060830152506080611897848285016115a0565b60808301525092915050565b600061018082840312156118ba576118b9611657565b5b6118c56101006116cd565b905060006118d5848285016115a0565b60008301525060206118e9848285016115a0565b60208301525060406118fd848285016115a0565b6040830152506060611911848285016115a0565b606083015250608061192584828501611817565b60808301525061012061193a8482850161170e565b60a08301525061014061194f8482850161170e565b60c083015250610160611964848285016115a0565b60e08301525092915050565b600080fd5b600067ffffffffffffffff8211156119905761198f61166d565b5b602082029050602081019050919050565b600080fd5b60006119b96119b484611975565b6116cd565b905080838252602082019050602084028301858111156119dc576119db6119a1565b5b835b81811015611a0557806119f188826115a0565b8452602084019350506020810190506119de565b5050509392505050565b600082601f830112611a2457611a23611970565b5b8135611a348482602086016119a6565b91505092915050565b600060608284031215611a5357611a52611657565b5b611a5d60606116cd565b90506000611a6d8482850161170e565b6000830152506020611a818482850161170e565b6020830152506040611a958482850161170e565b60408301525092915050565b60006101608284031215611ab857611ab7611657565b5b611ac36101206116cd565b90506000611ad3848285016115a0565b600083015250602082013567ffffffffffffffff811115611af757611af66116e8565b5b611b0384828501611a0f565b6020830152506040611b17848285016115a0565b6040830152506060611b2b848285016115a0565b6060830152506080611b3f84828501611a3d565b60808301525060e0611b53848285016115a0565b60a083015250610100611b68848285016115a0565b60c083015250610120611b7d848285016115a0565b60e083015250610140611b92848285016115a0565b6101008301525092915050565b60008060006101c08486031215611bb957611bb8611575565b5b6000611bc7868287016115a0565b9350506020611bd8868287016118a3565b9250506101a084013567ffffffffffffffff811115611bfa57611bf961157a565b5b611c0686828701611aa1565b9150509250925092565b611c198161157f565b82525050565b611c28816116ed565b82525050565b60c082016000820151611c446000850182611c10565b506020820151611c576020850182611c10565b506040820151611c6a6040850182611c1f565b506060820151611c7d6060850182611c1f565b506080820151611c906080850182611c10565b5060a0820151611ca360a0850182611c10565b50505050565b600060c082019050611cbe6000830184611c2e565b92915050565b6000611ccf8261151d565b9050919050565b611cdf81611cc4565b82525050565b6000602082019050611cfa6000830184611cd6565b92915050565b60006101208284031215611d1757611d16611657565b5b611d226101206116cd565b90506000611d32848285016115a0565b6000830152506020611d46848285016115a0565b6020830152506040611d5a848285016115a0565b6040830152506060611d6e848285016115a0565b6060830152506080611d82848285016115a0565b60808301525060a0611d96848285016115a0565b60a08301525060c0611daa848285016115a0565b60c08301525060e0611dbe848285016115a0565b60e083015250610100611dd3848285016115a0565b6101008301525092915050565b6000806000806102e08587031215611dfb57611dfa611575565b5b6000611e0987828801611d00565b945050610120611e1b878288016118a3565b9350506102a085013567ffffffffffffffff811115611e3d57611e3c61157a565b5b611e4987828801611aa1565b9250506102c0611e5b878288016115a0565b91505092959194509250565b60e082016000820151611e7d6000850182611c10565b506020820151611e906020850182611c1f565b506040820151611ea36040850182611c1f565b506060820151611eb66060850182611c1f565b506080820151611ec96080850182611c10565b5060a0820151611edc60a0850182611c10565b5060c0820151611eef60c0850182611c10565b50505050565b600060e082019050611f0a6000830184611e67565b92915050565b60008060408385031215611f2757611f26611575565b5b6000611f35858286016115a0565b9250506020611f46858286016115a0565b9150509250929050565b6000611f5b8261151d565b9050919050565b611f6b81611f50565b82525050565b6000602082019050611f866000830184611f62565b92915050565b60038110611f9957600080fd5b50565b600081359050611fab81611f8c565b92915050565b60008115159050919050565b611fc681611fb1565b8114611fd157600080fd5b50565b600081359050611fe381611fbd565b92915050565b60008060008060008060c0878903121561200657612005611575565b5b600061201489828a016115a0565b965050602061202589828a01611f9c565b955050604061203689828a01611642565b945050606061204789828a016115a0565b935050608061205889828a01611fd4565b92505060a061206989828a01611fd4565b9150509295509295509295565b600080600080600060a0868803121561209257612091611575565b5b60006120a0888289016115a0565b95505060206120b188828901611fd4565b94505060406120c288828901611f9c565b93505060606120d388828901611642565b92505060806120e488828901611fd4565b9150509295509295909350565b6120fa81611fb1565b82525050565b7f4e487b7100000000000000000000000000000000000000000000000000000000600052602160045260246000fd5b600381106121405761213f612100565b5b50565b60008190506121518261212f565b919050565b600061216182612143565b9050919050565b61217181612156565b82525050565b6005811061218857612187612100565b5b50565b600081905061219982612177565b919050565b60006121a98261218b565b9050919050565b6121b98161219e565b82525050565b60e0820160008201516121d56000850182611c10565b5060208201516121e86020850182611c10565b5060408201516121fb6040850182611c10565b50606082015161220e6060850182611c10565b5060808201516122216080850182611c10565b5060a082015161223460a0850182611c10565b5060c082015161224760c0850182611c10565b50505050565b6101e08201600082015161226460008501826120f1565b50602082015161227760208501826120f1565b50604082015161228a6040850182612168565b50606082015161229d60608501826121b0565b5060808201516122b06080850182611c10565b5060a08201516122c360a0850182611c10565b5060c08201516122d660c0850182611c10565b5060e08201516122e960e0850182611c10565b506101008201516122fe6101008501826121bf565b50505050565b60006101e08201905061231a600083018461224d565b92915050565b600061232b8261151d565b9050919050565b61233b81612320565b82525050565b60006020820190506123566000830184612332565b92915050565b60008060006060848603121561237557612374611575565b5b600061238386828701611f9c565b935050602061239486828701611642565b92505060406123a586828701611fd4565b9150509250925092565b60006123ba8261151d565b9050919050565b6123ca816123af565b82525050565b60006020820190506123e560008301846123c1565b92915050565b6000815190506123fa81611589565b92915050565b6000610120828403121561241757612416611657565b5b6124226101206116cd565b90506000612432848285016123eb565b6000830152506020612446848285016123eb565b602083015250604061245a848285016123eb565b604083015250606061246e848285016123eb565b6060830152506080612482848285016123eb565b60808301525060a0612496848285016123eb565b60a08301525060c06124aa848285016123eb565b60c08301525060e06124be848285016123eb565b60e0830152506101006124d3848285016123eb565b6101008301525092915050565b600061012082840312156124f7576124f6611575565b5b600061250584828501612400565b91505092915050565b60006080820190506125236000830187611608565b6125306020830186611608565b61253d6040830185611608565b61254a6060830184611608565b95945050505050565b60006020828403121561256957612568611575565b5b6000612577848285016123eb565b91505092915050565b600061258b826114d1565b9050919050565b61259b81612580565b82525050565b60006020820190506125b66000830184612592565b92915050565b6000815190506125cb816116f7565b92915050565b6000602082840312156125e7576125e6611575565b5b60006125f5848285016125bc565b91505092915050565b6126078161157f565b82525050565b612616816116ed565b82525050565b60a08201600082015161263260008501826125fe565b50602082015161264560208501826125fe565b50604082015161265860408501826125fe565b50606082015161266b60608501826125fe565b50608082015161267e608085018261260d565b50505050565b600060a082019050612699600083018461261c565b92915050565b600060c082840312156126b5576126b4611657565b5b6126bf60c06116cd565b905060006126cf848285016123eb565b60008301525060206126e3848285016123eb565b60208301525060406126f7848285016125bc565b604083015250606061270b848285016125bc565b606083015250608061271f848285016123eb565b60808301525060a0612733848285016123eb565b60a08301525092915050565b600060c0828403121561275557612754611575565b5b60006127638482850161269f565b91505092915050565b60006060828403121561278257612781611657565b5b61278c60606116cd565b9050600061279c848285016125bc565b60008301525060206127b0848285016125bc565b60208301525060406127c4848285016125bc565b60408301525092915050565b600061010082840312156127e7576127e6611657565b5b6127f160c06116cd565b90506000612801848285016123eb565b6000830152506020612815848285016123eb565b6020830152506040612829848285016123eb565b604083015250606061283d848285016123eb565b6060830152506080612851848285016123eb565b60808301525060a06128658482850161276c565b60a08301525092915050565b6000610100828403121561288857612887611575565b5b6000612896848285016127d0565b91505092915050565b7f4e487b7100000000000000000000000000000000000000000000000000000000600052601160045260246000fd5b60006128d98261157f565b91506128e48361157f565b92508282019050808211156128fc576128fb61289f565b5b92915050565b600061290d826116ed565b9150612918836116ed565b925082820390508181126000841216828213600085121516171561293f5761293e61289f565b5b92915050565b6000612950826116ed565b915061295b836116ed565b9250828201905082811215600083121683821260008412151617156129835761298261289f565b5b92915050565b6000612994826116ed565b91507f800000000000000000000000000000000000000000000000000000000000000082036129c6576129c561289f565b5b816000039050919050565b600061012082840312156129e8576129e7611657565b5b6129f36101206116cd565b90506000612a03848285016123eb565b6000830152506020612a17848285016123eb565b6020830152506040612a2b848285016123eb565b6040830152506060612a3f848285016123eb565b6060830152506080612a53848285016123eb565b60808301525060a0612a67848285016123eb565b60a08301525060c0612a7b848285016123eb565b60c08301525060e0612a8f848285016123eb565b60e083015250610100612aa4848285016123eb565b6101008301525092915050565b600081519050612ac081611fbd565b92915050565b6000612ad9612ad484611975565b6116cd565b90508083825260208201905060208402830185811115612afc57612afb6119a1565b5b835b81811015612b255780612b1188826123eb565b845260208401935050602081019050612afe565b5050509392505050565b600082601f830112612b4457612b43611970565b5b8151612b54848260208601612ac6565b91505092915050565b600060a08284031215612b7357612b72611657565b5b612b7d60a06116cd565b90506000612b8d848285016123eb565b6000830152506020612ba1848285016123eb565b6020830152506040612bb5848285016123eb565b6040830152506060612bc984828501612ab1565b606083015250608082015167ffffffffffffffff811115612bed57612bec6116e8565b5b612bf984828501612b2f565b60808301525092915050565b6000806101408385031215612c1d57612c1c611575565b5b6000612c2b858286016129d1565b92505061012083015167ffffffffffffffff811115612c4d57612c4c61157a565b5b612c5985828601612b5d565b9150509250929050565b600060a08284031215612c7957612c78611657565b5b612c8360a06116cd565b90506000612c93848285016125bc565b6000830152506020612ca7848285016125bc565b6020830152506040612cbb848285016123eb565b6040830152506060612ccf848285016123eb565b6060830152506080612ce3848285016123eb565b60808301525092915050565b60006101808284031215612d0657612d05611657565b5b612d116101006116cd565b90506000612d21848285016123eb565b6000830152506020612d35848285016123eb565b6020830152506040612d49848285016123eb565b6040830152506060612d5d848285016123eb565b6060830152506080612d7184828501612c63565b608083015250610120612d86848285016125bc565b60a083015250610140612d9b848285016125bc565b60c083015250610160612db0848285016123eb565b60e08301525092915050565b60006101808284031215612dd357612dd2611575565b5b6000612de184828501612cef565b91505092915050565b60006101608284031215612e0157612e00611657565b5b612e0c6101206116cd565b90506000612e1c848285016123eb565b600083015250602082015167ffffffffffffffff811115612e4057612e3f6116e8565b5b612e4c84828501612b2f565b6020830152506040612e60848285016123eb565b6040830152506060612e74848285016123eb565b6060830152506080612e888482850161276c565b60808301525060e0612e9c848285016123eb565b60a083015250610100612eb1848285016123eb565b60c083015250610120612ec6848285016123eb565b60e083015250610140612edb848285016123eb565b6101008301525092915050565b600060208284031215612efe57612efd611575565b5b600082015167ffffffffffffffff811115612f1c57612f1b61157a565b5b612f2884828501612dea565b91505092915050565b600061022082019050612f47600083018661224d565b612f556101e0830185611608565b612f63610200830184611608565b949350505050565b60008060408385031215612f8257612f81611575565b5b6000612f90858286016123eb565b9250506020612fa1858286016123eb565b9150509250929050565b60006102c082019050612fc1600083018561224d565b612fcf6101e0830184611e67565b9392505050565b600060c08284031215612fec57612feb611657565b5b612ff660c06116cd565b90506000613006848285016125bc565b600083015250602061301a848285016125bc565b602083015250604061302e848285016123eb565b6040830152506060613042848285016123eb565b6060830152506080613056848285016123eb565b60808301525060a061306a848285016123eb565b60a08301525092915050565b600060c0828403121561308c5761308b611575565b5b600061309a84828501612fd6565b91505092915050565b60006102e0820190506130b9600083018661224d565b6130c76101e0830185611e67565b6130d56102c0830184611608565b949350505050565b600061010082840312156130f4576130f3611657565b5b6130ff6101006116cd565b9050600061310f848285016123eb565b6000830152506020613123848285016123eb565b6020830152506040613137848285016123eb565b604083015250606061314b848285016123eb565b606083015250608061315f848285016123eb565b60808301525060a0613173848285016123eb565b60a08301525060c0613187848285016123eb565b60c08301525060e061319b848285016123eb565b60e08301525092915050565b600061010082840312156131be576131bd611575565b5b60006131cc848285016130dd565b91505092915050565b60006131e08261157f565b91506131eb8361157f565b92508282039050818111156132035761320261289f565b5b92915050565b600060e0828403121561321f5761321e611657565b5b61322960e06116cd565b90506000613239848285016123eb565b600083015250602061324d848285016123eb565b6020830152506040613261848285016123eb565b6040830152506060613275848285016123eb565b6060830152506080613289848285016123eb565b60808301525060a061329d848285016123eb565b60a08301525060c06132b1848285016123eb565b60c08301525092915050565b600060e082840312156132d3576132d2611575565b5b60006132e184828501613209565b91505092915050565b600581106132fb576132fa612100565b5b50565b600081905061330c826132ea565b919050565b600061331c826132fe565b9050919050565b61332c81613311565b82525050565b60006040820190506133476000830185612592565b6133546020830184613323565b9392505050565b60008160011c9050919050565b6000808291508390505b60018511156133b25780860481111561338e5761338d61289f565b5b600185161561339d5780820291505b80810290506133ab8561335b565b9450613372565b94509492505050565b6000826133cb5760019050613487565b816133d95760009050613487565b81600181146133ef57600281146133f957613428565b6001915050613487565b60ff84111561340b5761340a61289f565b5b8360020a9150848211156134225761342161289f565b5b50613487565b5060208310610133831016604e8410600b841016171561345d5782820a9050838111156134585761345761289f565b5b613487565b61346a8484846001613368565b925090508184048111156134815761348061289f565b5b81810290505b9392505050565b60006134998261157f565b91506134a48361157f565b92506134d17fffffffffffffffffffffffffffffffffffffffffffffffffffffffffffffffff84846133bb565b905092915050565b60006134e48261157f565b91506134ef8361157f565b9250817fffffffffffffffffffffffffffffffffffffffffffffffffffffffffffffffff04831182151516156135285761352761289f565b5b828202905092915050565b7f4e487b7100000000000000000000000000000000000000000000000000000000600052601260045260246000fd5b600061356d8261157f565b91506135788361157f565b92508261358857613587613533565b5b828204905092915050565b600082825260208201905092915050565b7f53616665436173743a2076616c756520646f65736e27742066697420696e206160008201527f6e20696e74323536000000000000000000000000000000000000000000000000602082015250565b6000613600602883613593565b915061360b826135a4565b604082019050919050565b6000602082019050818103600083015261362f816135f3565b9050919050565b6000613641826116ed565b915061364c836116ed565b9250827f7fffffffffffffffffffffffffffffffffffffffffffffffffffffffffffffff048211600084136000841316161561368b5761368a61289f565b5b817f800000000000000000000000000000000000000000000000000000000000000005831260008412600084131616156136c8576136c761289f565b5b827f800000000000000000000000000000000000000000000000000000000000000005821260008413600084121616156137055761370461289f565b5b827f7fffffffffffffffffffffffffffffffffffffffffffffffffffffffffffffff05821260008412600084121616156137425761374161289f565b5b828202905092915050565b6000613758826116ed565b9150613763836116ed565b92508261377357613772613533565b5b600160000383147f8000000000000000000000000000000000000000000000000000000000000000831416156137ac576137ab61289f565b5b82820590509291505056fea2646970667358221220055beeec0b3c6eb4be0267a6a078b71cb8265c80f75332a171ab4af5bc308b8664736f6c63430008100033",
  "libraries": {
    "BlackScholes": "0xEAC659b8e6458568D84A278d1a1b286DD1e9511B"
  },
  "devdoc": {
    "author": "0nika0",
    "kind": "dev",
    "methods": {
      "calculateOptionPriceFee(uint256,uint256)": {
        "params": {
          "expiry": "The expiration time of the option.",
          "premium": "The premium amount of the option."
        },
        "returns": {
          "fee": "The calculated fee based on the provided premium and expiration time."
        }
      },
      "calculatePremium(uint8,uint256,(uint256,uint256,int256,int256,uint256,uint256))": {
        "params": {
          "amount": "The amount of options being traded.",
          "optionType": "The type of the option: LONG_CALL, LONG_PUT, SHORT_CALL_BASE, SHORT_CALL_QUOTE, SHORT_PUT_QUOTE.",
          "pricesDeltaStdVega": "The struct containing calculated prices, delta, and standard vega."
        },
        "returns": {
          "premium": "The calculated premium for the option trade."
        }
      },
      "calculatePricesDeltaStdVega(uint256,(uint256,uint256,uint256,uint256,(int256,int256,uint256,uint256,uint256),int256,int256,uint256),(uint256,uint256[],uint256,uint256,(int256,int256,int256),uint256,uint256,uint256,uint256))": {
        "details": "This function calculates various option-related values using the Black-Scholes formula.",
        "params": {
          "boardCache": "The cached data for the option board.",
          "spotPrice": "The current spot price of the underlying asset.",
          "strikeCache": "The cached data for the strike associated with the option."
        },
        "returns": {
          "pricesDeltaStdVega": "A struct containing calculated prices, delta, and standard vega."
        }
      },
      "calculateSpotPriceFee(uint256,uint256,uint256)": {
        "params": {
          "amount": "The amount of options being traded.",
          "expiry": "The expiration time of the options.",
          "spotPrice": "The current spot price of the underlying asset."
        },
        "returns": {
          "fee": "The calculated fee based on the provided spot price and trade parameters."
        }
      },
      "calculateTotalCost(uint256,uint8,uint8,uint256,bool,bool)": {
        "details": "This function calculates the approximate value of an option trade based on various parameters.",
        "params": {
          "amount": "The amount of options being traded.",
          "isBuy": "True if it's a buy trade, false if it's a sell trade.",
          "isForceClose": "True if the trade is a force close.",
          "optionType": "The type of the option: LONG_CALL, LONG_PUT, SHORT_CALL_BASE, SHORT_CALL_QUOTE, SHORT_PUT_QUOTE.",
          "strikeId": "The ID of the strike for the option trade.",
          "tradeDirection": "The direction of the trade: OPEN, CLOSE, LIQUIDATE."
        },
        "returns": {
          "totalCost": "The total cost of the trade including fees."
        }
      },
      "getSpotPrice(uint8,uint8,bool)": {
        "params": {
          "isForceClose": "True if the trade is a force close.",
          "optionType": "The type of the option: LONG_CALL, LONG_PUT, SHORT_CALL_BASE, SHORT_CALL_QUOTE, SHORT_PUT_QUOTE.",
          "tradeDirection": "The direction of the trade: OPEN, CLOSE, LIQUIDATE."
        },
        "returns": {
          "spotPrice": "The calculated spot price for the trade."
        }
      },
      "preparetionPricing((uint256,uint256,uint256,uint256,uint256,uint256,uint256,uint256,uint256),(uint256,uint256,uint256,uint256,(int256,int256,uint256,uint256,uint256),int256,int256,uint256),(uint256,uint256[],uint256,uint256,(int256,int256,int256),uint256,uint256,uint256,uint256),uint256)": {
        "params": {
          "boardCache": "The cached data for the option board.",
          "strike": "The information about the strike.",
          "strikeCache": "The cached data for the strike.",
          "vega": "The calculated vega value."
        },
        "returns": {
          "pricing": "The populated trade pricing data."
        }
      },
      "preparetionTrade(uint256,bool,uint8,uint8,bool)": {
        "params": {
          "amount": "The amount of options being traded.",
          "isBuy": "True if it's a buy trade, false if it's a sell trade.",
          "isForceClose": "True if the trade is a force close.",
          "optionType": "The type of the option: LONG_CALL, LONG_PUT, SHORT_CALL_BASE, SHORT_CALL_QUOTE, SHORT_PUT_QUOTE.",
          "tradeDirection": "The direction of the trade: OPEN, CLOSE, LIQUIDATE."
        },
        "returns": {
          "trade": "The populated trade parameters."
        }
      }
    },
    "title": "LyraCalc",
    "version": 1
  },
  "userdoc": {
    "kind": "user",
    "methods": {
      "calculateOptionPriceFee(uint256,uint256)": {
        "notice": "Calculates the fee based on the option premium and expiration time, considering time weighting."
      },
      "calculatePremium(uint8,uint256,(uint256,uint256,int256,int256,uint256,uint256))": {
        "notice": "Calculates the premium for the option trade based on the option type and other parameters."
      },
      "calculatePricesDeltaStdVega(uint256,(uint256,uint256,uint256,uint256,(int256,int256,uint256,uint256,uint256),int256,int256,uint256),(uint256,uint256[],uint256,uint256,(int256,int256,int256),uint256,uint256,uint256,uint256))": {
        "notice": "Calculates option prices, delta, and standard vega using the Black-Scholes model."
      },
      "calculateSpotPriceFee(uint256,uint256,uint256)": {
        "notice": "Calculates the fee based on spot price and trade amount, taking into account time weighting."
      },
      "calculateTotalCost(uint256,uint8,uint8,uint256,bool,bool)": {
        "notice": "Calculates the total cost for a given trade."
      },
      "getSpotPrice(uint8,uint8,bool)": {
        "notice": "Retrieves the appropriate spot price based on trade direction, option type, and force close status."
      },
      "preparetionPricing((uint256,uint256,uint256,uint256,uint256,uint256,uint256,uint256,uint256),(uint256,uint256,uint256,uint256,(int256,int256,uint256,uint256,uint256),int256,int256,uint256),(uint256,uint256[],uint256,uint256,(int256,int256,int256),uint256,uint256,uint256,uint256),uint256)": {
        "notice": "Prepares trade pricing data based on strike and greek cache information."
      },
      "preparetionTrade(uint256,bool,uint8,uint8,bool)": {
        "notice": "Prepares deal parameters for totalCost calculation."
      }
    },
    "notice": "A smart contract for calculating the total cost of option trades and related fees. This contract leverages the Black-Scholes model and various pricing parameters to estimate trade costs.",
    "version": 1
  },
  "storageLayout": {
    "storage": [
      {
        "astId": 2286,
        "contract": "contracts/LyraCalc.sol:LyraCalc",
        "label": "optionMarket",
        "offset": 0,
        "slot": "0",
        "type": "t_contract(IOptionMarket)3352"
      },
      {
        "astId": 2289,
        "contract": "contracts/LyraCalc.sol:LyraCalc",
        "label": "optionMarketPricer",
        "offset": 0,
        "slot": "1",
        "type": "t_contract(IOptionMarketPricer)3465"
      },
      {
        "astId": 2292,
        "contract": "contracts/LyraCalc.sol:LyraCalc",
        "label": "baseExchangeAdapter",
        "offset": 0,
        "slot": "2",
        "type": "t_contract(IBaseExchangeAdapter)3072"
      },
      {
        "astId": 2295,
        "contract": "contracts/LyraCalc.sol:LyraCalc",
        "label": "optionGreekCache",
        "offset": 0,
        "slot": "3",
        "type": "t_contract(IOptionGreekCache)3207"
      },
      {
        "astId": 2298,
        "contract": "contracts/LyraCalc.sol:LyraCalc",
        "label": "liquidityPool",
        "offset": 0,
        "slot": "4",
        "type": "t_contract(ILiquidityPool)3096"
      }
    ],
    "types": {
      "t_contract(IBaseExchangeAdapter)3072": {
        "encoding": "inplace",
        "label": "contract IBaseExchangeAdapter",
        "numberOfBytes": "20"
      },
      "t_contract(ILiquidityPool)3096": {
        "encoding": "inplace",
        "label": "contract ILiquidityPool",
        "numberOfBytes": "20"
      },
      "t_contract(IOptionGreekCache)3207": {
        "encoding": "inplace",
        "label": "contract IOptionGreekCache",
        "numberOfBytes": "20"
      },
      "t_contract(IOptionMarket)3352": {
        "encoding": "inplace",
        "label": "contract IOptionMarket",
        "numberOfBytes": "20"
      },
      "t_contract(IOptionMarketPricer)3465": {
        "encoding": "inplace",
        "label": "contract IOptionMarketPricer",
        "numberOfBytes": "20"
      }
    }
  }
}